:100000000A128A114C2E00308A000408840A8207E2
:10001000003442346C346F3463346B342134203414
:100020002034003455346E3462346C346F346334AD
:060030006B342E34003495
:100C980083010A128A11A52E01300A128A116226CE
:100CA8000A128A110800F20083120313061572084B
:100CB8000A128A1160270A128A110800F2008312A8
:100CC8000313061172080A128A1160270A128A1180
:100CD8000800F400F408031D722E732E7B2E73088F
:100CE80080380A128A1162260A128A11832E730822
:100CF800C0380A128A1162260A128A11832E080045
:100D0800F400972E740884000A128A1103200A122C
:100D18008A110A128A1157260A128A110130F30021
:100D28007308F407972E740884000A128A110320A6
:100D38000A128A110038031DA22EA32E862EA42E75
:100D4800080083160313871586010A128A11D9260B
:100D58000A128A110A128A1150260A128A11B42E0E
:100D6800F30100300A128A116D260A128A118312C1
:100D78000313871DC02EC12EC82E01300A128A11F6
:100D880084260A128A11B42E8719CB2ECC2EB42EA3
:100D98000A300A128A1184260A128A11B42EB42E35
:100DA800B42EB42E0A128A1100281430F4007930B7
:100DB800F300F30BDD2EF40BDD2EE22E831203136A
:100DC80086150D30F400FB30F300F30BE92EF40B1D
:100DD800E92EEE2E831203138611061186130613CD
:100DE800861606168615F930F3000000F30BF92E67
:100DF800FD2E000083120313861186130613861630
:100E080006168615F930F3000000F30B082F0C2F97
:100E18000000831203138611F930F3000000F30B6E
:100E2800122F162F0000831203138613061386163B
:100E380006168615F930F3000000F30B202F242F37
:100E48000000831203138611F930F3000000F30B3E
:100E58002A2F2E2F000083120313861306138616DB
:100E680006128615F930F3000000F30B382F3C2FDB
:100E78000000831203138611F930F3000000F30B0E
:100E8800422F462F000028300A128A1162260A12C1
:100E98008A110C300A128A1162260A128A1101304C
:100EA8000A128A1162260A128A1106300A128A1157
:100EB80062260A128A110800F1007108F000073052
:100EC8000310F00CFF3E031D642F70186C2F702F59
:100ED800831203138617732F831203138613710863
:100EE800F00006300310F00CFF3E031D762F70183B
:100EF8007E2F822F831203130617852F8312031365
:100F080006137108F00005300310F00CFF3E031DB6
:100F1800882F7018902F942F831203138616972FFB
:100F28008312031386127108F00004300310F00CCA
:100F3800FF3E031D9A2F7018A22FA62F83120313AA
:100F48000616A92F8312031306128615F930F0002E
:100F58000000F00BAC2FB02F000083120313861192
:100F68007108F00003300310F00CFF3E031DB72F8B
:100F78007018BF2FC32F831203138617C62F83122F
:100F8800031386137108F00002300310F00CFF3EC3
:100F9800031DC92F7018D12FD52F831203130617DD
:100FA800D82F8312031306137108F00001300310C1
:100FB800F00CFF3E031DDB2F7018E32FE72F831281
:100FC80003138616EA2F8312031386127118ED2F66
:100FD800F12F831203130616F42F8312031306123C
:100FE8008615F930F0000000F00BF72FFB2F0000FA
:080FF8008312031386110800A7
:02400E00323F3F
:00000001FF
